{"abi":[{"type":"constructor","inputs":[],"stateMutability":"nonpayable"},{"type":"receive","stateMutability":"payable"},{"type":"function","name":"ENTROPY","inputs":[],"outputs":[{"name":"","type":"address","internalType":"contract IEntropy"}],"stateMutability":"view"},{"type":"function","name":"checkFee","inputs":[{"name":"provider","type":"address","internalType":"address"}],"outputs":[{"name":"","type":"uint128","internalType":"uint128"}],"stateMutability":"view"},{"type":"function","name":"currentProvider","inputs":[],"outputs":[{"name":"","type":"address","internalType":"address"}],"stateMutability":"view"},{"type":"function","name":"entropyCallback","inputs":[{"name":"sequenceNumber","type":"uint64","internalType":"uint64"},{"name":"provider","type":"address","internalType":"address"},{"name":"randomNumber","type":"bytes32","internalType":"bytes32"}],"outputs":[],"stateMutability":"nonpayable"},{"type":"function","name":"generateWeatherFromEntropy","inputs":[{"name":"entropy","type":"bytes32","internalType":"bytes32"}],"outputs":[{"name":"","type":"uint8","internalType":"uint8"}],"stateMutability":"pure"},{"type":"function","name":"getContractInfo","inputs":[],"outputs":[],"stateMutability":"nonpayable"},{"type":"function","name":"getCurrentBlockEntropy","inputs":[],"outputs":[{"name":"","type":"bytes32","internalType":"bytes32"},{"name":"","type":"uint64","internalType":"uint64"}],"stateMutability":"view"},{"type":"function","name":"getRequestInfo","inputs":[{"name":"sequenceNumber","type":"uint64","internalType":"uint64"}],"outputs":[{"name":"requester","type":"address","internalType":"address"},{"name":"timestamp","type":"uint256","internalType":"uint256"},{"name":"finalRandomNumber","type":"bytes32","internalType":"bytes32"},{"name":"fulfilled","type":"bool","internalType":"bool"}],"stateMutability":"view"},{"type":"function","name":"getUserRequests","inputs":[{"name":"user","type":"address","internalType":"address"}],"outputs":[{"name":"","type":"uint64[]","internalType":"uint64[]"}],"stateMutability":"view"},{"type":"function","name":"pingEntropy","inputs":[],"outputs":[{"name":"","type":"bool","internalType":"bool"}],"stateMutability":"view"},{"type":"function","name":"randomRequests","inputs":[{"name":"","type":"uint64","internalType":"uint64"}],"outputs":[{"name":"requester","type":"address","internalType":"address"},{"name":"timestamp","type":"uint256","internalType":"uint256"},{"name":"commitment","type":"bytes32","internalType":"bytes32"},{"name":"userRandomNumber","type":"bytes32","internalType":"bytes32"},{"name":"finalRandomNumber","type":"bytes32","internalType":"bytes32"},{"name":"fulfilled","type":"bool","internalType":"bool"}],"stateMutability":"view"},{"type":"function","name":"requestRandom","inputs":[],"outputs":[{"name":"","type":"uint64","internalType":"uint64"}],"stateMutability":"payable"},{"type":"function","name":"requestRandomWithBlockhash","inputs":[],"outputs":[{"name":"","type":"uint64","internalType":"uint64"}],"stateMutability":"payable"},{"type":"function","name":"revealRandom","inputs":[{"name":"sequenceNumber","type":"uint64","internalType":"uint64"},{"name":"providerRandomNumber","type":"bytes32","internalType":"bytes32"}],"outputs":[{"name":"","type":"bytes32","internalType":"bytes32"}],"stateMutability":"nonpayable"},{"type":"function","name":"setProvider","inputs":[{"name":"provider","type":"address","internalType":"address"}],"outputs":[],"stateMutability":"nonpayable"},{"type":"function","name":"testGetEntropy","inputs":[{"name":"blockNumber","type":"uint64","internalType":"uint64"}],"outputs":[{"name":"","type":"bytes32","internalType":"bytes32"}],"stateMutability":"view"},{"type":"function","name":"totalRequests","inputs":[],"outputs":[{"name":"","type":"uint64","internalType":"uint64"}],"stateMutability":"view"},{"type":"function","name":"userRequests","inputs":[{"name":"","type":"address","internalType":"address"},{"name":"","type":"uint256","internalType":"uint256"}],"outputs":[{"name":"","type":"uint64","internalType":"uint64"}],"stateMutability":"view"},{"type":"function","name":"withdraw","inputs":[],"outputs":[],"stateMutability":"nonpayable"},{"type":"event","name":"ContractInfo","inputs":[{"name":"entropyContract","type":"address","indexed":false,"internalType":"address"},{"name":"defaultProvider","type":"address","indexed":false,"internalType":"address"},{"name":"contractBalance","type":"uint256","indexed":false,"internalType":"uint256"}],"anonymous":false},{"type":"event","name":"ProviderInfo","inputs":[{"name":"provider","type":"address","indexed":true,"internalType":"address"},{"name":"fee","type":"uint128","indexed":false,"internalType":"uint128"},{"name":"isValid","type":"bool","indexed":false,"internalType":"bool"}],"anonymous":false},{"type":"event","name":"RandomRequested","inputs":[{"name":"sequenceNumber","type":"uint64","indexed":true,"internalType":"uint64"},{"name":"requester","type":"address","indexed":true,"internalType":"address"},{"name":"commitment","type":"bytes32","indexed":false,"internalType":"bytes32"},{"name":"fee","type":"uint256","indexed":false,"internalType":"uint256"}],"anonymous":false},{"type":"event","name":"RandomRevealed","inputs":[{"name":"sequenceNumber","type":"uint64","indexed":true,"internalType":"uint64"},{"name":"randomNumber","type":"bytes32","indexed":false,"internalType":"bytes32"},{"name":"provider","type":"address","indexed":false,"internalType":"address"}],"anonymous":false}],"bytecode":{"object":"0x608060405234801562000010575f80fd5b507336825bf3fbdf5a29e2d5148bfe7dcf7b5639e32073ffffffffffffffffffffffffffffffffffffffff166382ee990c6040518163ffffffff1660e01b8152600401602060405180830381865afa9250505080156200009057506040513d601f19601f820116820180604052508101906200008d91906200018a565b60015b620000dc575f600260086101000a81548173ffffffffffffffffffffffffffffffffffffffff021916908373ffffffffffffffffffffffffffffffffffffffff1602179055506200011f565b80600260086101000a81548173ffffffffffffffffffffffffffffffffffffffff021916908373ffffffffffffffffffffffffffffffffffffffff160217905550505b620001ba565b5f80fd5b5f73ffffffffffffffffffffffffffffffffffffffff82169050919050565b5f620001548262000129565b9050919050565b620001668162000148565b811462000171575f80fd5b50565b5f8151905062000184816200015b565b92915050565b5f60208284031215620001a257620001a162000125565b5b5f620001b18482850162000174565b91505092915050565b612dd180620001c85f395ff3fe608060405260043610610117575f3560e01c80638aea61dc1161009f578063cfd8d6c011610063578063cfd8d6c0146103aa578063da9f7550146103d2578063ef36e9e9146103f0578063f49f3bd81461041a578063febe92af146104565761011e565b80638aea61dc146102a15780639c4486c7146102cb578063b337cf74146102f6578063c0a348cd14610332578063cf910b8f1461036e5761011e565b80633ccfd60b116100e65780633ccfd60b146101e0578063692be93b146101f65780637bd0da33146102205780637cc1f867146102615780638829fdaa146102775761011e565b806319e05014146101225780631ab19d7514610140578063241851351461017c578063263cb6b6146101a45761011e565b3661011e57005b5f80fd5b61012a610495565b6040516101379190611d8c565b60405180910390f35b34801561014b575f80fd5b5061016660048036038101906101619190611ddc565b610af3565b6040516101739190611e1f565b60405180910390f35b348015610187575f80fd5b506101a2600480360381019061019d9190611ebc565b610b87565b005b3480156101af575f80fd5b506101ca60048036038101906101c59190611f3f565b610d3e565b6040516101d79190611d8c565b60405180910390f35b3480156101eb575f80fd5b506101f4610d86565b005b348015610201575f80fd5b5061020a610e0e565b6040516102179190611fd8565b60405180910390f35b34801561022b575f80fd5b5061024660048036038101906102419190611ddc565b610e26565b60405161025896959493929190612029565b60405180910390f35b34801561026c575f80fd5b50610275610e88565b005b348015610282575f80fd5b5061028b610f68565b6040516102989190612088565b60405180910390f35b3480156102ac575f80fd5b506102b5610f8e565b6040516102c29190611d8c565b60405180910390f35b3480156102d6575f80fd5b506102df610fa7565b6040516102ed9291906120a1565b60405180910390f35b348015610301575f80fd5b5061031c600480360381019061031791906120c8565b611072565b60405161032991906121aa565b60405180910390f35b34801561033d575f80fd5b50610358600480360381019061035391906121ca565b611138565b6040516103659190611e1f565b60405180910390f35b348015610379575f80fd5b50610394600480360381019061038f91906120c8565b611393565b6040516103a19190612232565b60405180910390f35b3480156103b5575f80fd5b506103d060048036038101906103cb91906120c8565b611431565b005b6103da6115ac565b6040516103e79190611d8c565b60405180910390f35b3480156103fb575f80fd5b50610404611c09565b604051610411919061224b565b60405180910390f35b348015610425575f80fd5b50610440600480360381019061043b9190612264565b611c9b565b60405161044d91906122aa565b60405180910390f35b348015610461575f80fd5b5061047c60048036038101906104779190611ddc565b611cf1565b60405161048c94939291906122c3565b60405180910390f35b5f8073ffffffffffffffffffffffffffffffffffffffff16600260089054906101000a900473ffffffffffffffffffffffffffffffffffffffff1673ffffffffffffffffffffffffffffffffffffffff1603610526576040517f08c379a000000000000000000000000000000000000000000000000000000000815260040161051d90612360565b60405180910390fd5b5f423360014361053691906123ab565b4060025f9054906101000a900467ffffffffffffffff166040516020016105609493929190612497565b6040516020818303038152906040528051906020012090505f8160405160200161058a91906124e4565b6040516020818303038152906040528051906020012090505f7336825bf3fbdf5a29e2d5148bfe7dcf7b5639e32073ffffffffffffffffffffffffffffffffffffffff1663b88c9148600260089054906101000a900473ffffffffffffffffffffffffffffffffffffffff166040518263ffffffff1660e01b81526004016106129190612088565b602060405180830381865afa92505050801561064c57506040513d601f19601f820116820180604052508101906106499190612528565b60015b610658573490506106b2565b809150816fffffffffffffffffffffffffffffffff163410156106b0576040517f08c379a00000000000000000000000000000000000000000000000000000000081526004016106a79061259d565b60405180910390fd5b505b5f7336825bf3fbdf5a29e2d5148bfe7dcf7b5639e32073ffffffffffffffffffffffffffffffffffffffff166393cbf217836fffffffffffffffffffffffffffffffff16600260089054906101000a900473ffffffffffffffffffffffffffffffffffffffff168660016040518563ffffffff1660e01b815260040161073a939291906125bb565b60206040518083038185885af19350505050801561077657506040513d601f19601f820116820180604052508101906107739190612604565b60015b61083a5761078261263b565b806308c379a0036107fd57506107966126c8565b806107a157506107ff565b806040516020016107b2919061280d565b6040516020818303038152906040526040517f08c379a00000000000000000000000000000000000000000000000000000000081526004016107f49190612866565b60405180910390fd5b505b6040517f08c379a0000000000000000000000000000000000000000000000000000000008152600401610831906128d0565b60405180910390fd5b809150506040518060c001604052803373ffffffffffffffffffffffffffffffffffffffff1681526020014281526020018481526020018581526020015f801b81526020015f15158152505f808367ffffffffffffffff1667ffffffffffffffff1681526020019081526020015f205f820151815f015f6101000a81548173ffffffffffffffffffffffffffffffffffffffff021916908373ffffffffffffffffffffffffffffffffffffffff1602179055506020820151816001015560408201518160020155606082015181600301556080820151816004015560a0820151816005015f6101000a81548160ff02191690831515021790555090505060015f3373ffffffffffffffffffffffffffffffffffffffff1673ffffffffffffffffffffffffffffffffffffffff1681526020019081526020015f2081908060018154018082558091505060019003905f5260205f2090600491828204019190066008029091909190916101000a81548167ffffffffffffffff021916908367ffffffffffffffff16021790555060025f81819054906101000a900467ffffffffffffffff16809291906109eb906128ee565b91906101000a81548167ffffffffffffffff021916908367ffffffffffffffff160217905550503373ffffffffffffffffffffffffffffffffffffffff168167ffffffffffffffff167f9c29ff168f0c4987fe9d2d0a97529e6ba5dcb4d4bd5c12108a045ee99b683ff28585604051610a6592919061294d565b60405180910390a3816fffffffffffffffffffffffffffffffff16341115610ae9573373ffffffffffffffffffffffffffffffffffffffff166108fc836fffffffffffffffffffffffffffffffff1634610abf91906123ab565b90811502906040515f60405180830381858888f19350505050158015610ae7573d5f803e3d5ffd5b505b8094505050505090565b5f7336825bf3fbdf5a29e2d5148bfe7dcf7b5639e32073ffffffffffffffffffffffffffffffffffffffff1663dec5444a836040518263ffffffff1660e01b8152600401610b419190611d8c565b602060405180830381865afa158015610b5c573d5f803e3d5ffd5b505050506040513d601f19601f82011682018060405250810190610b809190612988565b9050919050565b7336825bf3fbdf5a29e2d5148bfe7dcf7b5639e32073ffffffffffffffffffffffffffffffffffffffff163373ffffffffffffffffffffffffffffffffffffffff16148015610c4757505f73ffffffffffffffffffffffffffffffffffffffff165f808567ffffffffffffffff1667ffffffffffffffff1681526020019081526020015f205f015f9054906101000a900473ffffffffffffffffffffffffffffffffffffffff1673ffffffffffffffffffffffffffffffffffffffff1614155b8015610c8457505f808467ffffffffffffffff1667ffffffffffffffff1681526020019081526020015f206005015f9054906101000a900460ff16155b15610d3957805f808567ffffffffffffffff1667ffffffffffffffff1681526020019081526020015f206004018190555060015f808567ffffffffffffffff1667ffffffffffffffff1681526020019081526020015f206005015f6101000a81548160ff0219169083151502179055508267ffffffffffffffff167ff917af2c2b3474c8eb908ec1040b8963e5d419ff302e818a551b8908581bd66d8284604051610d309291906129b3565b60405180910390a25b505050565b6001602052815f5260405f208181548110610d57575f80fd5b905f5260205f209060049182820401919006600802915091509054906101000a900467ffffffffffffffff1681565b5f4711610dc8576040517f08c379a0000000000000000000000000000000000000000000000000000000008152600401610dbf90612a24565b60405180910390fd5b3373ffffffffffffffffffffffffffffffffffffffff166108fc4790811502906040515f60405180830381858888f19350505050158015610e0b573d5f803e3d5ffd5b50565b7336825bf3fbdf5a29e2d5148bfe7dcf7b5639e32081565b5f602052805f5260405f205f91509050805f015f9054906101000a900473ffffffffffffffffffffffffffffffffffffffff1690806001015490806002015490806003015490806004015490806005015f9054906101000a900460ff16905086565b5f7336825bf3fbdf5a29e2d5148bfe7dcf7b5639e32073ffffffffffffffffffffffffffffffffffffffff166382ee990c6040518163ffffffff1660e01b8152600401602060405180830381865afa925050508015610f0557506040513d601f19601f82011682018060405250810190610f029190612a56565b60015b610f11575f9050610f16565b809150505b7f4c72c32a188f7247a5a53b501304b4c01692226441c56f9be6d7930b13d183a17336825bf3fbdf5a29e2d5148bfe7dcf7b5639e3208247604051610f5d93929190612a81565b60405180910390a150565b600260089054906101000a900473ffffffffffffffffffffffffffffffffffffffff1681565b60025f9054906101000a900467ffffffffffffffff1681565b5f805f4390505f60058267ffffffffffffffff1611610fc65781610fd4565b600582610fd39190612ab6565b5b90505f7336825bf3fbdf5a29e2d5148bfe7dcf7b5639e32073ffffffffffffffffffffffffffffffffffffffff1663dec5444a836040518263ffffffff1660e01b81526004016110249190611d8c565b602060405180830381865afa15801561103f573d5f803e3d5ffd5b505050506040513d601f19601f820116820180604052508101906110639190612988565b90508082945094505050509091565b606060015f8373ffffffffffffffffffffffffffffffffffffffff1673ffffffffffffffffffffffffffffffffffffffff1681526020019081526020015f2080548060200260200160405190810160405280929190818152602001828054801561112c57602002820191905f5260205f20905f905b82829054906101000a900467ffffffffffffffff1667ffffffffffffffff16815260200190600801906020826007010492830192600103820291508084116110e75790505b50505050509050919050565b5f805f808567ffffffffffffffff1667ffffffffffffffff1681526020019081526020015f2090503373ffffffffffffffffffffffffffffffffffffffff16815f015f9054906101000a900473ffffffffffffffffffffffffffffffffffffffff1673ffffffffffffffffffffffffffffffffffffffff16146111f0576040517f08c379a00000000000000000000000000000000000000000000000000000000081526004016111e790612b3b565b60405180910390fd5b806005015f9054906101000a900460ff1615611241576040517f08c379a000000000000000000000000000000000000000000000000000000000815260040161123890612ba3565b60405180910390fd5b5f7336825bf3fbdf5a29e2d5148bfe7dcf7b5639e32073ffffffffffffffffffffffffffffffffffffffff16639371df51600260089054906101000a900473ffffffffffffffffffffffffffffffffffffffff16878560030154886040518563ffffffff1660e01b81526004016112bb9493929190612bc1565b6020604051808303815f875af11580156112d7573d5f803e3d5ffd5b505050506040513d601f19601f820116820180604052508101906112fb9190612988565b90508082600401819055506001826005015f6101000a81548160ff0219169083151502179055508467ffffffffffffffff167ff917af2c2b3474c8eb908ec1040b8963e5d419ff302e818a551b8908581bd66d82600260089054906101000a900473ffffffffffffffffffffffffffffffffffffffff166040516113809291906129b3565b60405180910390a2809250505092915050565b5f7336825bf3fbdf5a29e2d5148bfe7dcf7b5639e32073ffffffffffffffffffffffffffffffffffffffff1663b88c9148836040518263ffffffff1660e01b81526004016113e19190612088565b602060405180830381865afa92505050801561141b57506040513d601f19601f820116820180604052508101906114189190612528565b60015b611427575f905061142c565b809150505b919050565b80600260086101000a81548173ffffffffffffffffffffffffffffffffffffffff021916908373ffffffffffffffffffffffffffffffffffffffff1602179055507336825bf3fbdf5a29e2d5148bfe7dcf7b5639e32073ffffffffffffffffffffffffffffffffffffffff16637583902f826040518263ffffffff1660e01b81526004016114bf9190612088565b60c060405180830381865afa9250505080156114f957506040513d601f19601f820116820180604052508101906114f69190612c2e565b60015b611552578073ffffffffffffffffffffffffffffffffffffffff167fad067041a0b6c67300dc879ead0460ff6c474fdc133ae29c9df0bd02cfc4127a5f80604051611545929190612cf0565b60405180910390a26115a9565b8673ffffffffffffffffffffffffffffffffffffffff167fad067041a0b6c67300dc879ead0460ff6c474fdc133ae29c9df0bd02cfc4127a878360405161159a929190612d17565b60405180910390a25050505050505b50565b5f8073ffffffffffffffffffffffffffffffffffffffff16600260089054906101000a900473ffffffffffffffffffffffffffffffffffffffff1673ffffffffffffffffffffffffffffffffffffffff160361163d576040517f08c379a000000000000000000000000000000000000000000000000000000000815260040161163490612360565b60405180910390fd5b5f423360014361164d91906123ab565b4060025f9054906101000a900467ffffffffffffffff166040516020016116779493929190612497565b6040516020818303038152906040528051906020012090505f816040516020016116a191906124e4565b6040516020818303038152906040528051906020012090505f7336825bf3fbdf5a29e2d5148bfe7dcf7b5639e32073ffffffffffffffffffffffffffffffffffffffff1663b88c9148600260089054906101000a900473ffffffffffffffffffffffffffffffffffffffff166040518263ffffffff1660e01b81526004016117299190612088565b602060405180830381865afa92505050801561176357506040513d601f19601f820116820180604052508101906117609190612528565b60015b61176f573490506117c9565b809150816fffffffffffffffffffffffffffffffff163410156117c7576040517f08c379a00000000000000000000000000000000000000000000000000000000081526004016117be9061259d565b60405180910390fd5b505b5f7336825bf3fbdf5a29e2d5148bfe7dcf7b5639e32073ffffffffffffffffffffffffffffffffffffffff166393cbf217836fffffffffffffffffffffffffffffffff16600260089054906101000a900473ffffffffffffffffffffffffffffffffffffffff16865f6040518563ffffffff1660e01b8152600401611850939291906125bb565b60206040518083038185885af19350505050801561188c57506040513d601f19601f820116820180604052508101906118899190612604565b60015b6119505761189861263b565b806308c379a00361191357506118ac6126c8565b806118b75750611915565b806040516020016118c8919061280d565b6040516020818303038152906040526040517f08c379a000000000000000000000000000000000000000000000000000000000815260040161190a9190612866565b60405180910390fd5b505b6040517f08c379a0000000000000000000000000000000000000000000000000000000008152600401611947906128d0565b60405180910390fd5b809150506040518060c001604052803373ffffffffffffffffffffffffffffffffffffffff1681526020014281526020018481526020018581526020015f801b81526020015f15158152505f808367ffffffffffffffff1667ffffffffffffffff1681526020019081526020015f205f820151815f015f6101000a81548173ffffffffffffffffffffffffffffffffffffffff021916908373ffffffffffffffffffffffffffffffffffffffff1602179055506020820151816001015560408201518160020155606082015181600301556080820151816004015560a0820151816005015f6101000a81548160ff02191690831515021790555090505060015f3373ffffffffffffffffffffffffffffffffffffffff1673ffffffffffffffffffffffffffffffffffffffff1681526020019081526020015f2081908060018154018082558091505060019003905f5260205f2090600491828204019190066008029091909190916101000a81548167ffffffffffffffff021916908367ffffffffffffffff16021790555060025f81819054906101000a900467ffffffffffffffff1680929190611b01906128ee565b91906101000a81548167ffffffffffffffff021916908367ffffffffffffffff160217905550503373ffffffffffffffffffffffffffffffffffffffff168167ffffffffffffffff167f9c29ff168f0c4987fe9d2d0a97529e6ba5dcb4d4bd5c12108a045ee99b683ff28585604051611b7b92919061294d565b60405180910390a3816fffffffffffffffffffffffffffffffff16341115611bff573373ffffffffffffffffffffffffffffffffffffffff166108fc836fffffffffffffffffffffffffffffffff1634611bd591906123ab565b90811502906040515f60405180830381858888f19350505050158015611bfd573d5f803e3d5ffd5b505b8094505050505090565b5f7336825bf3fbdf5a29e2d5148bfe7dcf7b5639e32073ffffffffffffffffffffffffffffffffffffffff166382ee990c6040518163ffffffff1660e01b8152600401602060405180830381865afa925050508015611c8657506040513d601f19601f82011682018060405250810190611c839190612a56565b60015b611c92575f9050611c98565b60019150505b90565b5f806064835f1c611cac9190612d6b565b90506028811015611cc0575f915050611cec565b6041811015611cd3576001915050611cec565b6050811015611ce6576002915050611cec565b60039150505b919050565b5f805f805f805f8767ffffffffffffffff1667ffffffffffffffff1681526020019081526020015f209050805f015f9054906101000a900473ffffffffffffffffffffffffffffffffffffffff1681600101548260040154836005015f9054906101000a900460ff169450945094509450509193509193565b5f67ffffffffffffffff82169050919050565b611d8681611d6a565b82525050565b5f602082019050611d9f5f830184611d7d565b92915050565b5f604051905090565b5f80fd5b611dbb81611d6a565b8114611dc5575f80fd5b50565b5f81359050611dd681611db2565b92915050565b5f60208284031215611df157611df0611dae565b5b5f611dfe84828501611dc8565b91505092915050565b5f819050919050565b611e1981611e07565b82525050565b5f602082019050611e325f830184611e10565b92915050565b5f73ffffffffffffffffffffffffffffffffffffffff82169050919050565b5f611e6182611e38565b9050919050565b611e7181611e57565b8114611e7b575f80fd5b50565b5f81359050611e8c81611e68565b92915050565b611e9b81611e07565b8114611ea5575f80fd5b50565b5f81359050611eb681611e92565b92915050565b5f805f60608486031215611ed357611ed2611dae565b5b5f611ee086828701611dc8565b9350506020611ef186828701611e7e565b9250506040611f0286828701611ea8565b9150509250925092565b5f819050919050565b611f1e81611f0c565b8114611f28575f80fd5b50565b5f81359050611f3981611f15565b92915050565b5f8060408385031215611f5557611f54611dae565b5b5f611f6285828601611e7e565b9250506020611f7385828601611f2b565b9150509250929050565b5f819050919050565b5f611fa0611f9b611f9684611e38565b611f7d565b611e38565b9050919050565b5f611fb182611f86565b9050919050565b5f611fc282611fa7565b9050919050565b611fd281611fb8565b82525050565b5f602082019050611feb5f830184611fc9565b92915050565b611ffa81611e57565b82525050565b61200981611f0c565b82525050565b5f8115159050919050565b6120238161200f565b82525050565b5f60c08201905061203c5f830189611ff1565b6120496020830188612000565b6120566040830187611e10565b6120636060830186611e10565b6120706080830185611e10565b61207d60a083018461201a565b979650505050505050565b5f60208201905061209b5f830184611ff1565b92915050565b5f6040820190506120b45f830185611e10565b6120c16020830184611d7d565b9392505050565b5f602082840312156120dd576120dc611dae565b5b5f6120ea84828501611e7e565b91505092915050565b5f81519050919050565b5f82825260208201905092915050565b5f819050602082019050919050565b61212581611d6a565b82525050565b5f612136838361211c565b60208301905092915050565b5f602082019050919050565b5f612158826120f3565b61216281856120fd565b935061216d8361210d565b805f5b8381101561219d578151612184888261212b565b975061218f83612142565b925050600181019050612170565b5085935050505092915050565b5f6020820190508181035f8301526121c2818461214e565b905092915050565b5f80604083850312156121e0576121df611dae565b5b5f6121ed85828601611dc8565b92505060206121fe85828601611ea8565b9150509250929050565b5f6fffffffffffffffffffffffffffffffff82169050919050565b61222c81612208565b82525050565b5f6020820190506122455f830184612223565b92915050565b5f60208201905061225e5f83018461201a565b92915050565b5f6020828403121561227957612278611dae565b5b5f61228684828501611ea8565b91505092915050565b5f60ff82169050919050565b6122a48161228f565b82525050565b5f6020820190506122bd5f83018461229b565b92915050565b5f6080820190506122d65f830187611ff1565b6122e36020830186612000565b6122f06040830185611e10565b6122fd606083018461201a565b95945050505050565b5f82825260208201905092915050565b7f50726f7669646572206e6f7420736574000000000000000000000000000000005f82015250565b5f61234a601083612306565b915061235582612316565b602082019050919050565b5f6020820190508181035f8301526123778161233e565b9050919050565b7f4e487b71000000000000000000000000000000000000000000000000000000005f52601160045260245ffd5b5f6123b582611f0c565b91506123c083611f0c565b92508282039050818111156123d8576123d761237e565b5b92915050565b5f819050919050565b6123f86123f382611f0c565b6123de565b82525050565b5f8160601b9050919050565b5f612414826123fe565b9050919050565b5f6124258261240a565b9050919050565b61243d61243882611e57565b61241b565b82525050565b5f819050919050565b61245d61245882611e07565b612443565b82525050565b5f8160c01b9050919050565b5f61247982612463565b9050919050565b61249161248c82611d6a565b61246f565b82525050565b5f6124a282876123e7565b6020820191506124b2828661242c565b6014820191506124c2828561244c565b6020820191506124d28284612480565b60088201915081905095945050505050565b5f6124ef828461244c565b60208201915081905092915050565b61250781612208565b8114612511575f80fd5b50565b5f81519050612522816124fe565b92915050565b5f6020828403121561253d5761253c611dae565b5b5f61254a84828501612514565b91505092915050565b7f496e73756666696369656e7420666565000000000000000000000000000000005f82015250565b5f612587601083612306565b915061259282612553565b602082019050919050565b5f6020820190508181035f8301526125b48161257b565b9050919050565b5f6060820190506125ce5f830186611ff1565b6125db6020830185611e10565b6125e8604083018461201a565b949350505050565b5f815190506125fe81611db2565b92915050565b5f6020828403121561261957612618611dae565b5b5f612626848285016125f0565b91505092915050565b5f8160e01c9050919050565b5f60033d11156126575760045f803e6126545f5161262f565b90505b90565b5f601f19601f8301169050919050565b7f4e487b71000000000000000000000000000000000000000000000000000000005f52604160045260245ffd5b6126a08261265a565b810181811067ffffffffffffffff821117156126bf576126be61266a565b5b80604052505050565b5f60443d10612754576126d9611da5565b60043d036004823e80513d602482011167ffffffffffffffff82111715612701575050612754565b808201805167ffffffffffffffff81111561271f5750505050612754565b80602083010160043d03850181111561273c575050505050612754565b61274b82602001850186612697565b82955050505050505b90565b5f81905092915050565b7f52657175657374206661696c65643a20000000000000000000000000000000005f82015250565b5f612795601083612757565b91506127a082612761565b601082019050919050565b5f81519050919050565b5f5b838110156127d25780820151818401526020810190506127b7565b5f8484015250505050565b5f6127e7826127ab565b6127f18185612757565b93506128018185602086016127b5565b80840191505092915050565b5f61281782612789565b915061282382846127dd565b915081905092915050565b5f612838826127ab565b6128428185612306565b93506128528185602086016127b5565b61285b8161265a565b840191505092915050565b5f6020820190508181035f83015261287e818461282e565b905092915050565b7f52657175657374206661696c65643a20756e6b6e6f776e206572726f720000005f82015250565b5f6128ba601d83612306565b91506128c582612886565b602082019050919050565b5f6020820190508181035f8301526128e7816128ae565b9050919050565b5f6128f882611d6a565b915067ffffffffffffffff82036129125761291161237e565b5b600182019050919050565b5f61293761293261292d84612208565b611f7d565b611f0c565b9050919050565b6129478161291d565b82525050565b5f6040820190506129605f830185611e10565b61296d602083018461293e565b9392505050565b5f8151905061298281611e92565b92915050565b5f6020828403121561299d5761299c611dae565b5b5f6129aa84828501612974565b91505092915050565b5f6040820190506129c65f830185611e10565b6129d36020830184611ff1565b9392505050565b7f4e6f2066756e647320746f2077697468647261770000000000000000000000005f82015250565b5f612a0e601483612306565b9150612a19826129da565b602082019050919050565b5f6020820190508181035f830152612a3b81612a02565b9050919050565b5f81519050612a5081611e68565b92915050565b5f60208284031215612a6b57612a6a611dae565b5b5f612a7884828501612a42565b91505092915050565b5f606082019050612a945f830186611ff1565b612aa16020830185611ff1565b612aae6040830184612000565b949350505050565b5f612ac082611d6a565b9150612acb83611d6a565b9250828203905067ffffffffffffffff811115612aeb57612aea61237e565b5b92915050565b7f4e6f7420746865207265717565737465720000000000000000000000000000005f82015250565b5f612b25601183612306565b9150612b3082612af1565b602082019050919050565b5f6020820190508181035f830152612b5281612b19565b9050919050565b7f416c72656164792066756c66696c6c65640000000000000000000000000000005f82015250565b5f612b8d601183612306565b9150612b9882612b59565b602082019050919050565b5f6020820190508181035f830152612bba81612b81565b9050919050565b5f608082019050612bd45f830187611ff1565b612be16020830186611d7d565b612bee6040830185611e10565b612bfb6060830184611e10565b95945050505050565b612c0d8161200f565b8114612c17575f80fd5b50565b5f81519050612c2881612c04565b92915050565b5f805f805f8060c08789031215612c4857612c47611dae565b5b5f612c5589828a01612514565b9650506020612c6689828a01612514565b9550506040612c7789828a01612974565b9450506060612c8889828a016125f0565b9350506080612c9989828a016125f0565b92505060a0612caa89828a01612c1a565b9150509295509295509295565b5f819050919050565b5f612cda612cd5612cd084612cb7565b611f7d565b612208565b9050919050565b612cea81612cc0565b82525050565b5f604082019050612d035f830185612ce1565b612d10602083018461201a565b9392505050565b5f604082019050612d2a5f830185612223565b612d37602083018461201a565b9392505050565b7f4e487b71000000000000000000000000000000000000000000000000000000005f52601260045260245ffd5b5f612d7582611f0c565b9150612d8083611f0c565b925082612d9057612d8f612d3e565b5b82820690509291505056fea2646970667358221220ed4ae6c9c0fbac9fa9ef005086f0c3470e918777ac0e6fa7d01544b30ff3ad7464736f6c63430008180033","linkReferences":{}},"methodIdentifiers":{"ENTROPY()":"692be93b","checkFee(address)":"cf910b8f","currentProvider()":"8829fdaa","entropyCallback(uint64,address,bytes32)":"24185135","generateWeatherFromEntropy(bytes32)":"f49f3bd8","getContractInfo()":"7cc1f867","getCurrentBlockEntropy()":"9c4486c7","getRequestInfo(uint64)":"febe92af","getUserRequests(address)":"b337cf74","pingEntropy()":"ef36e9e9","randomRequests(uint64)":"7bd0da33","requestRandom()":"da9f7550","requestRandomWithBlockhash()":"19e05014","revealRandom(uint64,bytes32)":"c0a348cd","setProvider(address)":"cfd8d6c0","testGetEntropy(uint64)":"1ab19d75","totalRequests()":"8aea61dc","userRequests(address,uint256)":"263cb6b6","withdraw()":"3ccfd60b"},"id":21}