{"abi":[{"type":"constructor","inputs":[{"name":"_seedNFT","type":"address","internalType":"address"},{"name":"_landNFT","type":"address","internalType":"address"},{"name":"_shop","type":"address","internalType":"address"},{"name":"_kindToken","type":"address","internalType":"address"}],"stateMutability":"nonpayable"},{"type":"function","name":"DAILY_HELP_LIMIT","inputs":[],"outputs":[{"name":"","type":"uint256","internalType":"uint256"}],"stateMutability":"view"},{"type":"function","name":"FERTILIZING_PERCENTAGE_REDUCTION","inputs":[],"outputs":[{"name":"","type":"uint256","internalType":"uint256"}],"stateMutability":"view"},{"type":"function","name":"MAX_BOOSTERS_PER_CROP","inputs":[],"outputs":[{"name":"","type":"uint256","internalType":"uint256"}],"stateMutability":"view"},{"type":"function","name":"WATERING_TIME_REDUCTION","inputs":[],"outputs":[{"name":"","type":"uint256","internalType":"uint256"}],"stateMutability":"view"},{"type":"function","name":"applyBooster","inputs":[{"name":"landId","type":"uint256","internalType":"uint256"},{"name":"boosterType","type":"uint8","internalType":"enum FarmGame.BoosterType"},{"name":"payWithKind","type":"bool","internalType":"bool"}],"outputs":[],"stateMutability":"payable"},{"type":"function","name":"boosterPrices","inputs":[{"name":"","type":"uint8","internalType":"enum FarmGame.BoosterType"}],"outputs":[{"name":"nativePrice","type":"uint256","internalType":"uint256"},{"name":"kindPrice","type":"uint256","internalType":"uint256"},{"name":"availableForNative","type":"bool","internalType":"bool"},{"name":"availableForKind","type":"bool","internalType":"bool"}],"stateMutability":"view"},{"type":"function","name":"buySeedWithKind","inputs":[{"name":"cropType","type":"uint8","internalType":"enum SeedNFT.CropType"}],"outputs":[],"stateMutability":"nonpayable"},{"type":"function","name":"buySeedWithNative","inputs":[{"name":"cropType","type":"uint8","internalType":"enum SeedNFT.CropType"}],"outputs":[],"stateMutability":"payable"},{"type":"function","name":"checkAndAdvanceGrowth","inputs":[{"name":"landId","type":"uint256","internalType":"uint256"}],"outputs":[],"stateMutability":"nonpayable"},{"type":"function","name":"claimLand","inputs":[{"name":"landId","type":"uint256","internalType":"uint256"},{"name":"tokenId","type":"uint256","internalType":"uint256"}],"outputs":[],"stateMutability":"nonpayable"},{"type":"function","name":"dailyHelps","inputs":[{"name":"","type":"address","internalType":"address"},{"name":"","type":"uint256","internalType":"uint256"}],"outputs":[{"name":"","type":"uint256","internalType":"uint256"}],"stateMutability":"view"},{"type":"function","name":"emergencyPause","inputs":[],"outputs":[],"stateMutability":"nonpayable"},{"type":"function","name":"getAvailableSeedsForKind","inputs":[],"outputs":[{"name":"","type":"uint8[]","internalType":"enum SeedNFT.CropType[]"}],"stateMutability":"view"},{"type":"function","name":"getAvailableSeedsForNative","inputs":[],"outputs":[{"name":"","type":"uint8[]","internalType":"enum SeedNFT.CropType[]"}],"stateMutability":"view"},{"type":"function","name":"getBoosterPrice","inputs":[{"name":"boosterType","type":"uint8","internalType":"enum FarmGame.BoosterType"}],"outputs":[{"name":"","type":"tuple","internalType":"struct FarmGame.BoosterPrice","components":[{"name":"nativePrice","type":"uint256","internalType":"uint256"},{"name":"kindPrice","type":"uint256","internalType":"uint256"},{"name":"availableForNative","type":"bool","internalType":"bool"},{"name":"availableForKind","type":"bool","internalType":"bool"}]}],"stateMutability":"view"},{"type":"function","name":"getPlayerStats","inputs":[{"name":"player","type":"address","internalType":"address"}],"outputs":[{"name":"","type":"tuple","internalType":"struct FarmGame.PlayerStats","components":[{"name":"totalCropsHarvested","type":"uint256","internalType":"uint256"},{"name":"totalCropsStolen","type":"uint256","internalType":"uint256"},{"name":"totalHelpProvided","type":"uint256","internalType":"uint256"}]}],"stateMutability":"view"},{"type":"function","name":"getRemainingDailyHelps","inputs":[{"name":"helper","type":"address","internalType":"address"}],"outputs":[{"name":"","type":"uint256","internalType":"uint256"}],"stateMutability":"view"},{"type":"function","name":"getSeedPrice","inputs":[{"name":"cropType","type":"uint8","internalType":"enum SeedNFT.CropType"}],"outputs":[{"name":"","type":"tuple","internalType":"struct Shop.SeedPrice","components":[{"name":"nativePrice","type":"uint256","internalType":"uint256"},{"name":"kindPrice","type":"uint256","internalType":"uint256"},{"name":"availableForNative","type":"bool","internalType":"bool"},{"name":"availableForKind","type":"bool","internalType":"bool"}]}],"stateMutability":"view"},{"type":"function","name":"harvestCrop","inputs":[{"name":"landId","type":"uint256","internalType":"uint256"}],"outputs":[],"stateMutability":"nonpayable"},{"type":"function","name":"helpOther","inputs":[{"name":"landId","type":"uint256","internalType":"uint256"},{"name":"boosterType","type":"uint8","internalType":"enum FarmGame.BoosterType"},{"name":"payWithKind","type":"bool","internalType":"bool"}],"outputs":[],"stateMutability":"payable"},{"type":"function","name":"kindToken","inputs":[],"outputs":[{"name":"","type":"address","internalType":"contract KindnessToken"}],"stateMutability":"view"},{"type":"function","name":"landNFT","inputs":[],"outputs":[{"name":"","type":"address","internalType":"contract LandNFT"}],"stateMutability":"view"},{"type":"function","name":"lastHelpDay","inputs":[{"name":"","type":"address","internalType":"address"}],"outputs":[{"name":"","type":"uint256","internalType":"uint256"}],"stateMutability":"view"},{"type":"function","name":"owner","inputs":[],"outputs":[{"name":"","type":"address","internalType":"address"}],"stateMutability":"view"},{"type":"function","name":"playerStats","inputs":[{"name":"","type":"address","internalType":"address"}],"outputs":[{"name":"totalCropsHarvested","type":"uint256","internalType":"uint256"},{"name":"totalCropsStolen","type":"uint256","internalType":"uint256"},{"name":"totalHelpProvided","type":"uint256","internalType":"uint256"}],"stateMutability":"view"},{"type":"function","name":"renounceOwnership","inputs":[],"outputs":[],"stateMutability":"nonpayable"},{"type":"function","name":"seedNFT","inputs":[],"outputs":[{"name":"","type":"address","internalType":"contract SeedNFT"}],"stateMutability":"view"},{"type":"function","name":"shop","inputs":[],"outputs":[{"name":"","type":"address","internalType":"contract Shop"}],"stateMutability":"view"},{"type":"function","name":"stealCrop","inputs":[{"name":"landId","type":"uint256","internalType":"uint256"}],"outputs":[],"stateMutability":"nonpayable"},{"type":"function","name":"transferOwnership","inputs":[{"name":"newOwner","type":"address","internalType":"address"}],"outputs":[],"stateMutability":"nonpayable"},{"type":"function","name":"updateBoosterPrice","inputs":[{"name":"boosterType","type":"uint8","internalType":"enum FarmGame.BoosterType"},{"name":"nativePrice","type":"uint256","internalType":"uint256"},{"name":"kindPrice","type":"uint256","internalType":"uint256"},{"name":"availableForNative","type":"bool","internalType":"bool"},{"name":"availableForKind","type":"bool","internalType":"bool"}],"outputs":[],"stateMutability":"nonpayable"},{"type":"function","name":"weatherRequestToLand","inputs":[{"name":"","type":"uint256","internalType":"uint256"}],"outputs":[{"name":"","type":"uint256","internalType":"uint256"}],"stateMutability":"view"},{"type":"function","name":"withdrawNative","inputs":[],"outputs":[],"stateMutability":"nonpayable"},{"type":"event","name":"BoosterApplied","inputs":[{"name":"player","type":"address","indexed":true,"internalType":"address"},{"name":"landId","type":"uint256","indexed":true,"internalType":"uint256"},{"name":"boosterType","type":"uint8","indexed":false,"internalType":"enum FarmGame.BoosterType"}],"anonymous":false},{"type":"event","name":"CropHarvested","inputs":[{"name":"player","type":"address","indexed":true,"internalType":"address"},{"name":"landId","type":"uint256","indexed":true,"internalType":"uint256"},{"name":"seedTokenId","type":"uint256","indexed":true,"internalType":"uint256"}],"anonymous":false},{"type":"event","name":"CropStolen","inputs":[{"name":"thief","type":"address","indexed":true,"internalType":"address"},{"name":"victim","type":"address","indexed":true,"internalType":"address"},{"name":"landId","type":"uint256","indexed":true,"internalType":"uint256"},{"name":"seedTokenId","type":"uint256","indexed":false,"internalType":"uint256"}],"anonymous":false},{"type":"event","name":"HelpProvided","inputs":[{"name":"helper","type":"address","indexed":true,"internalType":"address"},{"name":"helped","type":"address","indexed":true,"internalType":"address"},{"name":"landId","type":"uint256","indexed":true,"internalType":"uint256"},{"name":"boosterType","type":"uint8","indexed":false,"internalType":"enum FarmGame.BoosterType"}],"anonymous":false},{"type":"event","name":"LandClaimed","inputs":[{"name":"player","type":"address","indexed":true,"internalType":"address"},{"name":"landId","type":"uint256","indexed":true,"internalType":"uint256"},{"name":"tokenId","type":"uint256","indexed":true,"internalType":"uint256"}],"anonymous":false},{"type":"event","name":"OwnershipTransferred","inputs":[{"name":"previousOwner","type":"address","indexed":true,"internalType":"address"},{"name":"newOwner","type":"address","indexed":true,"internalType":"address"}],"anonymous":false},{"type":"event","name":"SeedPurchased","inputs":[{"name":"buyer","type":"address","indexed":true,"internalType":"address"},{"name":"cropType","type":"uint8","indexed":false,"internalType":"enum SeedNFT.CropType"},{"name":"tokenId","type":"uint256","indexed":false,"internalType":"uint256"},{"name":"paidWithKind","type":"bool","indexed":false,"internalType":"bool"},{"name":"price","type":"uint256","indexed":false,"internalType":"uint256"}],"anonymous":false},{"type":"event","name":"WeatherRequested","inputs":[{"name":"landId","type":"uint256","indexed":true,"internalType":"uint256"},{"name":"requestId","type":"uint256","indexed":false,"internalType":"uint256"}],"anonymous":false},{"type":"event","name":"WeatherUpdated","inputs":[{"name":"landId","type":"uint256","indexed":true,"internalType":"uint256"},{"name":"weatherSeed","type":"uint256","indexed":false,"internalType":"uint256"}],"anonymous":false},{"type":"error","name":"OwnableInvalidOwner","inputs":[{"name":"owner","type":"address","internalType":"address"}]},{"type":"error","name":"OwnableUnauthorizedAccount","inputs":[{"name":"account","type":"address","internalType":"address"}]},{"type":"error","name":"ReentrancyGuardReentrantCall","inputs":[]}],"bytecode":{"object":"0x61010060405234801562000011575f80fd5b5060405162005b4338038062005b4383398181016040528101906200003791906200049f565b335f73ffffffffffffffffffffffffffffffffffffffff168173ffffffffffffffffffffffffffffffffffffffff1603620000ab575f6040517f1e4fbdf7000000000000000000000000000000000000000000000000000000008152600401620000a291906200051f565b60405180910390fd5b620000bc816200034760201b60201c565b506001620000df620000d36200040860201b60201c565b6200043160201b60201c565b5f01819055508373ffffffffffffffffffffffffffffffffffffffff1660808173ffffffffffffffffffffffffffffffffffffffff16815250508273ffffffffffffffffffffffffffffffffffffffff1660a08173ffffffffffffffffffffffffffffffffffffffff16815250508173ffffffffffffffffffffffffffffffffffffffff1660c08173ffffffffffffffffffffffffffffffffffffffff16815250508073ffffffffffffffffffffffffffffffffffffffff1660e08173ffffffffffffffffffffffffffffffffffffffff16815250506040518060800160405280655af3107a40008152602001670de0b6b3a764000081526020016001151581526020016001151581525060015f8060018111156200020357620002026200053a565b5b60018111156200021857620002176200053a565b5b81526020019081526020015f205f820151815f0155602082015181600101556040820151816002015f6101000a81548160ff02191690831515021790555060608201518160020160016101000a81548160ff021916908315150217905550905050604051806080016040528065b5e620f480008152602001671bc16d674ec8000081526020016001151581526020016001151581525060015f600180811115620002c757620002c66200053a565b5b6001811115620002dc57620002db6200053a565b5b81526020019081526020015f205f820151815f0155602082015181600101556040820151816002015f6101000a81548160ff02191690831515021790555060608201518160020160016101000a81548160ff0219169083151502179055509050505050505062000567565b5f805f9054906101000a900473ffffffffffffffffffffffffffffffffffffffff169050815f806101000a81548173ffffffffffffffffffffffffffffffffffffffff021916908373ffffffffffffffffffffffffffffffffffffffff1602179055508173ffffffffffffffffffffffffffffffffffffffff168173ffffffffffffffffffffffffffffffffffffffff167f8be0079c531659141344cd1fd0a4f28419497f9722a3daafe3b4186f6b6457e060405160405180910390a35050565b5f7f9b779b17422d0df92223018b32b4d1fa46e071723d6817e2486d003becc55f005f1b905090565b5f819050919050565b5f80fd5b5f73ffffffffffffffffffffffffffffffffffffffff82169050919050565b5f62000469826200043e565b9050919050565b6200047b816200045d565b811462000486575f80fd5b50565b5f81519050620004998162000470565b92915050565b5f805f8060808587031215620004ba57620004b96200043a565b5b5f620004c98782880162000489565b9450506020620004dc8782880162000489565b9350506040620004ef8782880162000489565b9250506060620005028782880162000489565b91505092959194509250565b62000519816200045d565b82525050565b5f602082019050620005345f8301846200050e565b92915050565b7f4e487b71000000000000000000000000000000000000000000000000000000005f52602160045260245ffd5b60805160a05160c05160e0516154ac620006975f395f8181610f850152818161105e015281816117bd0152818161189601528181612115015281816121ee015281816123ee0152612a8d01525f8181610790015281816116da01528181611a37015281816129a80152818161305c01526130fa01525f81816107cf0152818161098401528181610b0001528181610c47015281816112c70152818161144601528181611beb015281816125b5015281816127c601528181612cc001528181612e0b015261373301525f81816108dd01528181610dc7015281816111d8015281816114cc0152818161192f01528181611f57015281816123680152818161273c0152818161284c01528181612ad001528181612bd101528181612e9501528181612fb2015261322b01526154ac5ff3fe6080604052600436106101ed575f3560e01c80636d8e25fc1161010c578063cdafbbb61161009f578063f0cab6231161006e578063f0cab623146106cc578063f2fde38b146106f6578063f3d1f97d1461071e578063f986344214610748578063fc637ae214610764576101ed565b8063cdafbbb614610600578063d5b4d6f41461063e578063ea1c80ab1461067a578063ef6f1a2f146106a4576101ed565b806395ad8187116100db57806395ad818714610556578063ae1ec92e14610572578063b58c5f221461059a578063cc098bf6146105c4576101ed565b80636d8e25fc1461049b578063715018a6146104da5780637b652f73146104f05780638da5cb5b1461052c576101ed565b80634fd66eae116101845780635d0cc38f116101535780635d0cc38f146103e557806361179b4c1461040d578063631beab31461044957806365467c7914610471576101ed565b80634fd66eae1461036157806350431ce41461039d57806351858e27146103b357806356863eed146103c9576101ed565b80632b2ce55a116101c05780632b2ce55a146102a9578063354daed6146102e557806337952bda1461030f57806339d022e114610337576101ed565b80630881fa0d146101f15780630beb45131461021b5780631309d0551461024557806324b0836e14610281575b5f80fd5b3480156101fc575f80fd5b5061020561078e565b60405161021291906139d1565b60405180910390f35b348015610226575f80fd5b5061022f6107b2565b60405161023c9190613a02565b60405180910390f35b348015610250575f80fd5b5061026b60048036038101906102669190613a67565b6107b7565b6040516102789190613a02565b60405180910390f35b34801561028c575f80fd5b506102a760048036038101906102a29190613abc565b6107cc565b005b3480156102b4575f80fd5b506102cf60048036038101906102ca9190613abc565b610a27565b6040516102dc9190613a02565b60405180910390f35b3480156102f0575f80fd5b506102f9610a3c565b6040516103069190613a02565b60405180910390f35b34801561031a575f80fd5b5061033560048036038101906103309190613b3f565b610a41565b005b348015610342575f80fd5b5061034b610afe565b6040516103589190613bd6565b60405180910390f35b34801561036c575f80fd5b5061038760048036038101906103829190613a67565b610b22565b6040516103949190613c3e565b60405180910390f35b3480156103a8575f80fd5b506103b1610b96565b005b3480156103be575f80fd5b506103c7610c32565b005b6103e360048036038101906103de9190613c57565b610c3c565b005b3480156103f0575f80fd5b5061040b60048036038101906104069190613abc565b6112bc565b005b348015610418575f80fd5b50610433600480360381019061042e9190613a67565b6115f6565b6040516104409190613a02565b60405180910390f35b348015610454575f80fd5b5061046f600480360381019061046a9190613cca565b6116cf565b005b34801561047c575f80fd5b50610485611a33565b6040516104929190613e10565b60405180910390f35b3480156104a6575f80fd5b506104c160048036038101906104bc9190613e30565b611aca565b6040516104d19493929190613e6a565b60405180910390f35b3480156104e5575f80fd5b506104ee611b0f565b005b3480156104fb575f80fd5b5061051660048036038101906105119190613e30565b611b22565b6040516105239190613f0f565b60405180910390f35b348015610537575f80fd5b50610540611bb9565b60405161054d9190613f37565b60405180910390f35b610570600480360381019061056b9190613c57565b611be0565b005b34801561057d575f80fd5b5061059860048036038101906105939190613abc565b6125aa565b005b3480156105a5575f80fd5b506105ae612999565b6040516105bb9190613a02565b60405180910390f35b3480156105cf575f80fd5b506105ea60048036038101906105e59190613cca565b61299e565b6040516105f79190613fa3565b60405180910390f35b34801561060b575f80fd5b5061062660048036038101906106219190613a67565b612a45565b60405161063593929190613fbc565b60405180910390f35b348015610649575f80fd5b50610664600480360381019061065f9190613ff1565b612a6b565b6040516106719190613a02565b60405180910390f35b348015610685575f80fd5b5061068e612a8b565b60405161069b919061404f565b60405180910390f35b3480156106af575f80fd5b506106ca60048036038101906106c59190614068565b612aaf565b005b3480156106d7575f80fd5b506106e0612fb0565b6040516106ed91906140c6565b60405180910390f35b348015610701575f80fd5b5061071c60048036038101906107179190613a67565b612fd4565b005b348015610729575f80fd5b50610732613058565b60405161073f9190613e10565b60405180910390f35b610762600480360381019061075d9190613cca565b6130ef565b005b34801561076f575f80fd5b5061077861338b565b6040516107859190613a02565b60405180910390f35b7f000000000000000000000000000000000000000000000000000000000000000081565b600581565b6004602052805f5260405f205f915090505481565b5f7f000000000000000000000000000000000000000000000000000000000000000073ffffffffffffffffffffffffffffffffffffffff16636f6f9bef836040518263ffffffff1660e01b81526004016108269190613a02565b61010060405180830381865afa158015610842573d5f803e3d5ffd5b505050506040513d601f19601f82011682018060405250810190610866919061427d565b90506001600481111561087c5761087b613d1e565b5b815f0151600481111561089257610891613d1e565b5b146108d2576040517f08c379a00000000000000000000000000000000000000000000000000000000081526004016108c990614303565b60405180910390fd5b5f816020015190505f7f000000000000000000000000000000000000000000000000000000000000000073ffffffffffffffffffffffffffffffffffffffff1663dd9dbf25836040518263ffffffff1660e01b81526004016109349190613a02565b60e060405180830381865afa15801561094f573d5f803e3d5ffd5b505050506040513d601f19601f820116820180604052508101906109739190614462565b90505f61097f82613390565b90505f7f000000000000000000000000000000000000000000000000000000000000000073ffffffffffffffffffffffffffffffffffffffff1663fc99cc3987846040518363ffffffff1660e01b81526004016109dd92919061448d565b6020604051808303815f875af11580156109f9573d5f803e3d5ffd5b505050506040513d601f19601f82011682018060405250810190610a1d91906144c8565b9050505050505050565b6005602052805f5260405f205f915090505481565b607881565b610a49613442565b6040518060800160405280858152602001848152602001831515815260200182151581525060015f876001811115610a8457610a83613d1e565b5b6001811115610a9657610a95613d1e565b5b81526020019081526020015f205f820151815f0155602082015181600101556040820151816002015f6101000a81548160ff02191690831515021790555060608201518160020160016101000a81548160ff0219169083151502179055509050505050505050565b7f000000000000000000000000000000000000000000000000000000000000000081565b610b2a6138e9565b60035f8373ffffffffffffffffffffffffffffffffffffffff1673ffffffffffffffffffffffffffffffffffffffff1681526020019081526020015f206040518060600160405290815f8201548152602001600182015481526020016002820154815250509050919050565b610b9e613442565b5f4790505f8111610be4576040517f08c379a0000000000000000000000000000000000000000000000000000000008152600401610bdb90614563565b60405180910390fd5b610bec611bb9565b73ffffffffffffffffffffffffffffffffffffffff166108fc8290811502906040515f60405180830381858888f19350505050158015610c2e573d5f803e3d5ffd5b5050565b610c3a613442565b565b610c446134c9565b5f7f000000000000000000000000000000000000000000000000000000000000000073ffffffffffffffffffffffffffffffffffffffff16636f6f9bef856040518263ffffffff1660e01b8152600401610c9e9190613a02565b61010060405180830381865afa158015610cba573d5f803e3d5ffd5b505050506040513d601f19601f82011682018060405250810190610cde919061427d565b90503373ffffffffffffffffffffffffffffffffffffffff168160e0015173ffffffffffffffffffffffffffffffffffffffff1614610d52576040517f08c379a0000000000000000000000000000000000000000000000000000000008152600401610d49906145cb565b60405180910390fd5b60016004811115610d6657610d65613d1e565b5b815f01516004811115610d7c57610d7b613d1e565b5b14610dbc576040517f08c379a0000000000000000000000000000000000000000000000000000000008152600401610db390614633565b60405180910390fd5b5f816020015190505f7f000000000000000000000000000000000000000000000000000000000000000073ffffffffffffffffffffffffffffffffffffffff1663dd9dbf25836040518263ffffffff1660e01b8152600401610e1e9190613a02565b60e060405180830381865afa158015610e39573d5f803e3d5ffd5b505050506040513d601f19601f82011682018060405250810190610e5d9190614462565b9050600a8160c0015160ff1610610ea9576040517f08c379a0000000000000000000000000000000000000000000000000000000008152600401610ea09061469b565b60405180910390fd5b5f60015f876001811115610ec057610ebf613d1e565b5b6001811115610ed257610ed1613d1e565b5b81526020019081526020015f206040518060800160405290815f820154815260200160018201548152602001600282015f9054906101000a900460ff161515151581526020016002820160019054906101000a900460ff161515151581525050905084156110ed578060600151610f7e576040517f08c379a0000000000000000000000000000000000000000000000000000000008152600401610f7590614729565b60405180910390fd5b80602001517f000000000000000000000000000000000000000000000000000000000000000073ffffffffffffffffffffffffffffffffffffffff166370a08231336040518263ffffffff1660e01b8152600401610fdc9190613f37565b602060405180830381865afa158015610ff7573d5f803e3d5ffd5b505050506040513d601f19601f8201168201806040525081019061101b9190614747565b101561105c576040517f08c379a0000000000000000000000000000000000000000000000000000000008152600401611053906147bc565b60405180910390fd5b7f000000000000000000000000000000000000000000000000000000000000000073ffffffffffffffffffffffffffffffffffffffff16639dc29fac3383602001516040518363ffffffff1660e01b81526004016110bb9291906147da565b5f604051808303815f87803b1580156110d2575f80fd5b505af11580156110e4573d5f803e3d5ffd5b505050506111d6565b8060400151611131576040517f08c379a000000000000000000000000000000000000000000000000000000000815260040161112890614871565b60405180910390fd5b805f0151341015611177576040517f08c379a000000000000000000000000000000000000000000000000000000000815260040161116e906148d9565b60405180910390fd5b805f01513411156111d5573373ffffffffffffffffffffffffffffffffffffffff166108fc825f0151346111ab9190614924565b90811502906040515f60405180830381858888f193505050501580156111d3573d5f803e3d5ffd5b505b5b7f000000000000000000000000000000000000000000000000000000000000000073ffffffffffffffffffffffffffffffffffffffff1663d0b3c028846040518263ffffffff1660e01b815260040161122f9190613a02565b5f604051808303815f87803b158015611246575f80fd5b505af1158015611258573d5f803e3d5ffd5b50505050863373ffffffffffffffffffffffffffffffffffffffff167f1e051d96a9f24faef9df9aeacb654f439b8f746d4df3682df5acc1bbc1b967c3886040516112a3919061499d565b60405180910390a3505050506112b76134eb565b505050565b6112c46134c9565b5f7f000000000000000000000000000000000000000000000000000000000000000073ffffffffffffffffffffffffffffffffffffffff16636f6f9bef836040518263ffffffff1660e01b815260040161131e9190613a02565b61010060405180830381865afa15801561133a573d5f803e3d5ffd5b505050506040513d601f19601f8201168201806040525081019061135e919061427d565b90503373ffffffffffffffffffffffffffffffffffffffff168160e0015173ffffffffffffffffffffffffffffffffffffffff16146113d2576040517f08c379a00000000000000000000000000000000000000000000000000000000081526004016113c9906145cb565b60405180910390fd5b600260048111156113e6576113e5613d1e565b5b815f015160048111156113fc576113fb613d1e565b5b1461143c576040517f08c379a000000000000000000000000000000000000000000000000000000000815260040161143390614a00565b60405180910390fd5b5f816020015190507f000000000000000000000000000000000000000000000000000000000000000073ffffffffffffffffffffffffffffffffffffffff16635d0cc38f846040518263ffffffff1660e01b815260040161149d9190613a02565b5f604051808303815f87803b1580156114b4575f80fd5b505af11580156114c6573d5f803e3d5ffd5b505050507f000000000000000000000000000000000000000000000000000000000000000073ffffffffffffffffffffffffffffffffffffffff1663fb2ff94d826040518263ffffffff1660e01b81526004016115239190613a02565b5f604051808303815f87803b15801561153a575f80fd5b505af115801561154c573d5f803e3d5ffd5b5050505060035f3373ffffffffffffffffffffffffffffffffffffffff1673ffffffffffffffffffffffffffffffffffffffff1681526020019081526020015f205f015f81548092919061159f90614a1e565b919050555080833373ffffffffffffffffffffffffffffffffffffffff167f1d2744d484bfd6c11eb698d6664c8bf1eb4260fbe4b9f99912e87eff5dd2ff8260405160405180910390a450506115f36134eb565b50565b5f8062015180426116079190614a92565b90508060045f8573ffffffffffffffffffffffffffffffffffffffff1673ffffffffffffffffffffffffffffffffffffffff1681526020019081526020015f2054101561165857600f9150506116ca565b5f60025f8573ffffffffffffffffffffffffffffffffffffffff1673ffffffffffffffffffffffffffffffffffffffff1681526020019081526020015f205f8381526020019081526020015f20549050600f8110156116c35780600f6116be9190614924565b6116c5565b5f5b925050505b919050565b6116d76134c9565b5f7f000000000000000000000000000000000000000000000000000000000000000073ffffffffffffffffffffffffffffffffffffffff1663cc098bf6836040518263ffffffff1660e01b81526004016117319190614ad1565b608060405180830381865afa15801561174c573d5f803e3d5ffd5b505050506040513d601f19601f820116820180604052508101906117709190614b5f565b905080606001516117b6576040517f08c379a00000000000000000000000000000000000000000000000000000000081526004016117ad90614bfa565b60405180910390fd5b80602001517f000000000000000000000000000000000000000000000000000000000000000073ffffffffffffffffffffffffffffffffffffffff166370a08231336040518263ffffffff1660e01b81526004016118149190613f37565b602060405180830381865afa15801561182f573d5f803e3d5ffd5b505050506040513d601f19601f820116820180604052508101906118539190614747565b1015611894576040517f08c379a000000000000000000000000000000000000000000000000000000000815260040161188b90614c88565b60405180910390fd5b7f000000000000000000000000000000000000000000000000000000000000000073ffffffffffffffffffffffffffffffffffffffff16639dc29fac3383602001516040518363ffffffff1660e01b81526004016118f39291906147da565b5f604051808303815f87803b15801561190a575f80fd5b505af115801561191c573d5f803e3d5ffd5b505050505f61192a83613505565b90505f7f000000000000000000000000000000000000000000000000000000000000000073ffffffffffffffffffffffffffffffffffffffff16635f7560b63386856040518463ffffffff1660e01b815260040161198a93929190614cec565b6020604051808303815f875af11580156119a6573d5f803e3d5ffd5b505050506040513d601f19601f820116820180604052508101906119ca9190614747565b90503373ffffffffffffffffffffffffffffffffffffffff167f6b2d2e02a9bb1abdb0842f0c5321526b241590acebe2983c3bdd57166b814286858360018760200151604051611a1d9493929190614d21565b60405180910390a2505050611a306134eb565b50565b60607f000000000000000000000000000000000000000000000000000000000000000073ffffffffffffffffffffffffffffffffffffffff166365467c796040518163ffffffff1660e01b81526004015f60405180830381865afa158015611a9d573d5f803e3d5ffd5b505050506040513d5f823e3d601f19601f82011682018060405250810190611ac59190614e2c565b905090565b6001602052805f5260405f205f91509050805f015490806001015490806002015f9054906101000a900460ff16908060020160019054906101000a900460ff16905084565b611b17613442565b611b205f613634565b565b611b2a613907565b60015f836001811115611b4057611b3f613d1e565b5b6001811115611b5257611b51613d1e565b5b81526020019081526020015f206040518060800160405290815f820154815260200160018201548152602001600282015f9054906101000a900460ff161515151581526020016002820160019054906101000a900460ff1615151515815250509050919050565b5f805f9054906101000a900473ffffffffffffffffffffffffffffffffffffffff16905090565b611be86134c9565b5f7f000000000000000000000000000000000000000000000000000000000000000073ffffffffffffffffffffffffffffffffffffffff16636f6f9bef856040518263ffffffff1660e01b8152600401611c429190613a02565b61010060405180830381865afa158015611c5e573d5f803e3d5ffd5b505050506040513d601f19601f82011682018060405250810190611c82919061427d565b90503373ffffffffffffffffffffffffffffffffffffffff168160e0015173ffffffffffffffffffffffffffffffffffffffff1603611cf6576040517f08c379a0000000000000000000000000000000000000000000000000000000008152600401611ced90614ebd565b60405180910390fd5b5f73ffffffffffffffffffffffffffffffffffffffff168160e0015173ffffffffffffffffffffffffffffffffffffffff1603611d68576040517f08c379a0000000000000000000000000000000000000000000000000000000008152600401611d5f90614f25565b60405180910390fd5b60016004811115611d7c57611d7b613d1e565b5b815f01516004811115611d9257611d91613d1e565b5b14611dd2576040517f08c379a0000000000000000000000000000000000000000000000000000000008152600401611dc990614633565b60405180910390fd5b5f6201518042611de29190614a92565b90508060045f3373ffffffffffffffffffffffffffffffffffffffff1673ffffffffffffffffffffffffffffffffffffffff1681526020019081526020015f20541015611ebd575f60025f3373ffffffffffffffffffffffffffffffffffffffff1673ffffffffffffffffffffffffffffffffffffffff1681526020019081526020015f205f8381526020019081526020015f20819055508060045f3373ffffffffffffffffffffffffffffffffffffffff1673ffffffffffffffffffffffffffffffffffffffff1681526020019081526020015f20819055505b600f60025f3373ffffffffffffffffffffffffffffffffffffffff1673ffffffffffffffffffffffffffffffffffffffff1681526020019081526020015f205f8381526020019081526020015f205410611f4c576040517f08c379a0000000000000000000000000000000000000000000000000000000008152600401611f4390614fb3565b60405180910390fd5b5f826020015190505f7f000000000000000000000000000000000000000000000000000000000000000073ffffffffffffffffffffffffffffffffffffffff1663dd9dbf25836040518263ffffffff1660e01b8152600401611fae9190613a02565b60e060405180830381865afa158015611fc9573d5f803e3d5ffd5b505050506040513d601f19601f82011682018060405250810190611fed9190614462565b9050600a8160c0015160ff1610612039576040517f08c379a00000000000000000000000000000000000000000000000000000000081526004016120309061469b565b60405180910390fd5b5f60015f8860018111156120505761204f613d1e565b5b600181111561206257612061613d1e565b5b81526020019081526020015f206040518060800160405290815f820154815260200160018201548152602001600282015f9054906101000a900460ff161515151581526020016002820160019054906101000a900460ff1615151515815250509050851561227d57806060015161210e576040517f08c379a000000000000000000000000000000000000000000000000000000000815260040161210590614729565b60405180910390fd5b80602001517f000000000000000000000000000000000000000000000000000000000000000073ffffffffffffffffffffffffffffffffffffffff166370a08231336040518263ffffffff1660e01b815260040161216c9190613f37565b602060405180830381865afa158015612187573d5f803e3d5ffd5b505050506040513d601f19601f820116820180604052508101906121ab9190614747565b10156121ec576040517f08c379a00000000000000000000000000000000000000000000000000000000081526004016121e3906147bc565b60405180910390fd5b7f000000000000000000000000000000000000000000000000000000000000000073ffffffffffffffffffffffffffffffffffffffff16639dc29fac3383602001516040518363ffffffff1660e01b815260040161224b9291906147da565b5f604051808303815f87803b158015612262575f80fd5b505af1158015612274573d5f803e3d5ffd5b50505050612366565b80604001516122c1576040517f08c379a00000000000000000000000000000000000000000000000000000000081526004016122b890614871565b60405180910390fd5b805f0151341015612307576040517f08c379a00000000000000000000000000000000000000000000000000000000081526004016122fe906148d9565b60405180910390fd5b805f0151341115612365573373ffffffffffffffffffffffffffffffffffffffff166108fc825f01513461233b9190614924565b90811502906040515f60405180830381858888f19350505050158015612363573d5f803e3d5ffd5b505b5b7f000000000000000000000000000000000000000000000000000000000000000073ffffffffffffffffffffffffffffffffffffffff1663d0b3c028846040518263ffffffff1660e01b81526004016123bf9190613a02565b5f604051808303815f87803b1580156123d6575f80fd5b505af11580156123e8573d5f803e3d5ffd5b505050507f000000000000000000000000000000000000000000000000000000000000000073ffffffffffffffffffffffffffffffffffffffff1663266d161a338760e001516040518363ffffffff1660e01b815260040161244b929190614fd1565b5f604051808303815f87803b158015612462575f80fd5b505af1158015612474573d5f803e3d5ffd5b5050505060025f3373ffffffffffffffffffffffffffffffffffffffff1673ffffffffffffffffffffffffffffffffffffffff1681526020019081526020015f205f8581526020019081526020015f205f8154809291906124d490614a1e565b919050555060035f3373ffffffffffffffffffffffffffffffffffffffff1673ffffffffffffffffffffffffffffffffffffffff1681526020019081526020015f206002015f81548092919061252990614a1e565b9190505550878560e0015173ffffffffffffffffffffffffffffffffffffffff163373ffffffffffffffffffffffffffffffffffffffff167f5301d0fd02891367a7d8d96d973104485f9bac61886c8b5912f25d995992172e8a604051612590919061499d565b60405180910390a450505050506125a56134eb565b505050565b6125b26134c9565b5f7f000000000000000000000000000000000000000000000000000000000000000073ffffffffffffffffffffffffffffffffffffffff16636f6f9bef836040518263ffffffff1660e01b815260040161260c9190613a02565b61010060405180830381865afa158015612628573d5f803e3d5ffd5b505050506040513d601f19601f8201168201806040525081019061264c919061427d565b90503373ffffffffffffffffffffffffffffffffffffffff168160e0015173ffffffffffffffffffffffffffffffffffffffff16036126c0576040517f08c379a00000000000000000000000000000000000000000000000000000000081526004016126b790615068565b60405180910390fd5b600260048111156126d4576126d3613d1e565b5b815f015160048111156126ea576126e9613d1e565b5b1461272a576040517f08c379a000000000000000000000000000000000000000000000000000000000815260040161272190614a00565b60405180910390fd5b5f816020015190505f8260e0015190507f000000000000000000000000000000000000000000000000000000000000000073ffffffffffffffffffffffffffffffffffffffff166333bebb778233856040518463ffffffff1660e01b815260040161279793929190615086565b5f604051808303815f87803b1580156127ae575f80fd5b505af11580156127c0573d5f803e3d5ffd5b505050507f000000000000000000000000000000000000000000000000000000000000000073ffffffffffffffffffffffffffffffffffffffff1663ae1ec92e856040518263ffffffff1660e01b815260040161281d9190613a02565b5f604051808303815f87803b158015612834575f80fd5b505af1158015612846573d5f803e3d5ffd5b505050507f000000000000000000000000000000000000000000000000000000000000000073ffffffffffffffffffffffffffffffffffffffff1663fb2ff94d836040518263ffffffff1660e01b81526004016128a39190613a02565b5f604051808303815f87803b1580156128ba575f80fd5b505af11580156128cc573d5f803e3d5ffd5b5050505060035f3373ffffffffffffffffffffffffffffffffffffffff1673ffffffffffffffffffffffffffffffffffffffff1681526020019081526020015f206001015f81548092919061292090614a1e565b9190505550838173ffffffffffffffffffffffffffffffffffffffff163373ffffffffffffffffffffffffffffffffffffffff167ff2fe43457378f8d24596a63cbd1b8896abe8d5620ba91107fe588449193d9758856040516129839190613a02565b60405180910390a45050506129966134eb565b50565b600f81565b6129a661392f565b7f000000000000000000000000000000000000000000000000000000000000000073ffffffffffffffffffffffffffffffffffffffff1663cc098bf6836040518263ffffffff1660e01b81526004016129ff9190614ad1565b608060405180830381865afa158015612a1a573d5f803e3d5ffd5b505050506040513d601f19601f82011682018060405250810190612a3e9190614b5f565b9050919050565b6003602052805f5260405f205f91509050805f0154908060010154908060020154905083565b6002602052815f5260405f20602052805f5260405f205f91509150505481565b7f000000000000000000000000000000000000000000000000000000000000000081565b612ab76134c9565b3373ffffffffffffffffffffffffffffffffffffffff167f000000000000000000000000000000000000000000000000000000000000000073ffffffffffffffffffffffffffffffffffffffff16636352211e836040518263ffffffff1660e01b8152600401612b279190613a02565b602060405180830381865afa158015612b42573d5f803e3d5ffd5b505050506040513d601f19601f82011682018060405250810190612b6691906150bb565b73ffffffffffffffffffffffffffffffffffffffff1614612bbc576040517f08c379a0000000000000000000000000000000000000000000000000000000008152600401612bb390615130565b60405180910390fd5b5f6002811115612bcf57612bce613d1e565b5b7f000000000000000000000000000000000000000000000000000000000000000073ffffffffffffffffffffffffffffffffffffffff1663dd9dbf25836040518263ffffffff1660e01b8152600401612c289190613a02565b60e060405180830381865afa158015612c43573d5f803e3d5ffd5b505050506040513d601f19601f82011682018060405250810190612c679190614462565b604001516002811115612c7d57612c7c613d1e565b5b14612cbd576040517f08c379a0000000000000000000000000000000000000000000000000000000008152600401612cb490615198565b60405180910390fd5b5f7f000000000000000000000000000000000000000000000000000000000000000073ffffffffffffffffffffffffffffffffffffffff16636f6f9bef846040518263ffffffff1660e01b8152600401612d179190613a02565b61010060405180830381865afa158015612d33573d5f803e3d5ffd5b505050506040513d601f19601f82011682018060405250810190612d57919061427d565b90505f6004811115612d6c57612d6b613d1e565b5b815f01516004811115612d8257612d81613d1e565b5b14612dc2576040517f08c379a0000000000000000000000000000000000000000000000000000000008152600401612db990615200565b60405180910390fd5b8060600151421015612e09576040517f08c379a0000000000000000000000000000000000000000000000000000000008152600401612e0090615268565b60405180910390fd5b7f000000000000000000000000000000000000000000000000000000000000000073ffffffffffffffffffffffffffffffffffffffff16639bc5aedd8484336040518463ffffffff1660e01b8152600401612e6693929190615286565b5f604051808303815f87803b158015612e7d575f80fd5b505af1158015612e8f573d5f803e3d5ffd5b505050507f000000000000000000000000000000000000000000000000000000000000000073ffffffffffffffffffffffffffffffffffffffff1663f8e23937836040518263ffffffff1660e01b8152600401612eec9190613a02565b5f604051808303815f87803b158015612f03575f80fd5b505af1158015612f15573d5f803e3d5ffd5b505050505f612f23846136f5565b905082843373ffffffffffffffffffffffffffffffffffffffff167fe9d066f43c8a7c765b15b359553a8d0058f345fc38d18799ff4e431ea4f9ea9e60405160405180910390a4837f2dd11fcb08e31fe5be3a4714c671025df8219797265c11d3e8615ab1e96ed85982604051612f9a9190613a02565b60405180910390a25050612fac6134eb565b5050565b7f000000000000000000000000000000000000000000000000000000000000000081565b612fdc613442565b5f73ffffffffffffffffffffffffffffffffffffffff168173ffffffffffffffffffffffffffffffffffffffff160361304c575f6040517f1e4fbdf70000000000000000000000000000000000000000000000000000000081526004016130439190613f37565b60405180910390fd5b61305581613634565b50565b60607f000000000000000000000000000000000000000000000000000000000000000073ffffffffffffffffffffffffffffffffffffffff1663f3d1f97d6040518163ffffffff1660e01b81526004015f60405180830381865afa1580156130c2573d5f803e3d5ffd5b505050506040513d5f823e3d601f19601f820116820180604052508101906130ea9190614e2c565b905090565b6130f76134c9565b5f7f000000000000000000000000000000000000000000000000000000000000000073ffffffffffffffffffffffffffffffffffffffff1663cc098bf6836040518263ffffffff1660e01b81526004016131519190614ad1565b608060405180830381865afa15801561316c573d5f803e3d5ffd5b505050506040513d601f19601f820116820180604052508101906131909190614b5f565b905080604001516131d6576040517f08c379a00000000000000000000000000000000000000000000000000000000081526004016131cd9061532b565b60405180910390fd5b805f015134101561321c576040517f08c379a0000000000000000000000000000000000000000000000000000000008152600401613213906148d9565b60405180910390fd5b5f61322683613505565b90505f7f000000000000000000000000000000000000000000000000000000000000000073ffffffffffffffffffffffffffffffffffffffff16635f7560b63386856040518463ffffffff1660e01b815260040161328693929190614cec565b6020604051808303815f875af11580156132a2573d5f803e3d5ffd5b505050506040513d601f19601f820116820180604052508101906132c69190614747565b90503373ffffffffffffffffffffffffffffffffffffffff167f6b2d2e02a9bb1abdb0842f0c5321526b241590acebe2983c3bdd57166b81428685835f875f01516040516133179493929190614d21565b60405180910390a2825f015134111561337d573373ffffffffffffffffffffffffffffffffffffffff166108fc845f0151346133539190614924565b90811502906040515f60405180830381858888f1935050505015801561337b573d5f803e3d5ffd5b505b5050506133886134eb565b50565b600a81565b5f80826080015190505f8360c0015160ff1690505f6002826133b29190614a92565b90505f81836133c19190614924565b90506078826133d09190615349565b84116133dc575f6133f5565b6078826133e99190615349565b846133f49190614924565b5b93505f5b81811015613435576064600560646134119190614924565b8661341c9190615349565b6134269190614a92565b945080806001019150506133f9565b5083945050505050919050565b61344a6137f7565b73ffffffffffffffffffffffffffffffffffffffff16613468611bb9565b73ffffffffffffffffffffffffffffffffffffffff16146134c75761348b6137f7565b6040517f118cdaa70000000000000000000000000000000000000000000000000000000081526004016134be9190613f37565b60405180910390fd5b565b6134d16137fe565b60026134e36134de61383f565b613868565b5f0181905550565b60016134fd6134f861383f565b613868565b5f0181905550565b5f80600581111561351957613518613d1e565b5b82600581111561352c5761352b613d1e565b5b148061355c57506001600581111561354757613546613d1e565b5b82600581111561355a57613559613d1e565b5b145b8061358b57506002600581111561357657613575613d1e565b5b82600581111561358957613588613d1e565b5b145b15613598575f905061362f565b600360058111156135ac576135ab613d1e565b5b8260058111156135bf576135be613d1e565b5b14806135ef5750600460058111156135da576135d9613d1e565b5b8260058111156135ed576135ec613d1e565b5b145b8061361d575060058081111561360857613607613d1e565b5b82600581111561361b5761361a613d1e565b5b145b1561362b576001905061362f565b5f90505b919050565b5f805f9054906101000a900473ffffffffffffffffffffffffffffffffffffffff169050815f806101000a81548173ffffffffffffffffffffffffffffffffffffffff021916908373ffffffffffffffffffffffffffffffffffffffff1602179055508173ffffffffffffffffffffffffffffffffffffffff168173ffffffffffffffffffffffffffffffffffffffff167f8be0079c531659141344cd1fd0a4f28419497f9722a3daafe3b4186f6b6457e060405160405180910390a35050565b5f60065f81548092919061370890614a1e565b9190505590508160055f8381526020019081526020015f20819055505f61372f8333613871565b90507f000000000000000000000000000000000000000000000000000000000000000073ffffffffffffffffffffffffffffffffffffffff1663f9c61bb984836040518363ffffffff1660e01b815260040161378c92919061448d565b5f604051808303815f87803b1580156137a3575f80fd5b505af11580156137b5573d5f803e3d5ffd5b50505050827f8cb20d47ca8087e2e6995aa3a9e8183da5116f53bc7fd989f0d047c0e0f9e15d826040516137e99190613a02565b60405180910390a250919050565b5f33905090565b6138066138cd565b1561383d576040517f3ee5aeb500000000000000000000000000000000000000000000000000000000815260040160405180910390fd5b565b5f7f9b779b17422d0df92223018b32b4d1fa46e071723d6817e2486d003becc55f005f1b905090565b5f819050919050565b5f805f4311613882575f801b613891565b60014361388f9190614924565b405b905080428486446040516020016138ac959493929190615418565b604051602081830303815290604052805190602001205f1c91505092915050565b5f60026138e06138db61383f565b613868565b5f015414905090565b60405180606001604052805f81526020015f81526020015f81525090565b60405180608001604052805f81526020015f81526020015f151581526020015f151581525090565b60405180608001604052805f81526020015f81526020015f151581526020015f151581525090565b5f73ffffffffffffffffffffffffffffffffffffffff82169050919050565b5f819050919050565b5f61399961399461398f84613957565b613976565b613957565b9050919050565b5f6139aa8261397f565b9050919050565b5f6139bb826139a0565b9050919050565b6139cb816139b1565b82525050565b5f6020820190506139e45f8301846139c2565b92915050565b5f819050919050565b6139fc816139ea565b82525050565b5f602082019050613a155f8301846139f3565b92915050565b5f604051905090565b5f80fd5b5f80fd5b5f613a3682613957565b9050919050565b613a4681613a2c565b8114613a50575f80fd5b50565b5f81359050613a6181613a3d565b92915050565b5f60208284031215613a7c57613a7b613a24565b5b5f613a8984828501613a53565b91505092915050565b613a9b816139ea565b8114613aa5575f80fd5b50565b5f81359050613ab681613a92565b92915050565b5f60208284031215613ad157613ad0613a24565b5b5f613ade84828501613aa8565b91505092915050565b60028110613af3575f80fd5b50565b5f81359050613b0481613ae7565b92915050565b5f8115159050919050565b613b1e81613b0a565b8114613b28575f80fd5b50565b5f81359050613b3981613b15565b92915050565b5f805f805f60a08688031215613b5857613b57613a24565b5b5f613b6588828901613af6565b9550506020613b7688828901613aa8565b9450506040613b8788828901613aa8565b9350506060613b9888828901613b2b565b9250506080613ba988828901613b2b565b9150509295509295909350565b5f613bc0826139a0565b9050919050565b613bd081613bb6565b82525050565b5f602082019050613be95f830184613bc7565b92915050565b613bf8816139ea565b82525050565b606082015f820151613c125f850182613bef565b506020820151613c256020850182613bef565b506040820151613c386040850182613bef565b50505050565b5f606082019050613c515f830184613bfe565b92915050565b5f805f60608486031215613c6e57613c6d613a24565b5b5f613c7b86828701613aa8565b9350506020613c8c86828701613af6565b9250506040613c9d86828701613b2b565b9150509250925092565b60068110613cb3575f80fd5b50565b5f81359050613cc481613ca7565b92915050565b5f60208284031215613cdf57613cde613a24565b5b5f613cec84828501613cb6565b91505092915050565b5f81519050919050565b5f82825260208201905092915050565b5f819050602082019050919050565b7f4e487b71000000000000000000000000000000000000000000000000000000005f52602160045260245ffd5b60068110613d5c57613d5b613d1e565b5b50565b5f819050613d6c82613d4b565b919050565b5f613d7b82613d5f565b9050919050565b613d8b81613d71565b82525050565b5f613d9c8383613d82565b60208301905092915050565b5f602082019050919050565b5f613dbe82613cf5565b613dc88185613cff565b9350613dd383613d0f565b805f5b83811015613e03578151613dea8882613d91565b9750613df583613da8565b925050600181019050613dd6565b5085935050505092915050565b5f6020820190508181035f830152613e288184613db4565b905092915050565b5f60208284031215613e4557613e44613a24565b5b5f613e5284828501613af6565b91505092915050565b613e6481613b0a565b82525050565b5f608082019050613e7d5f8301876139f3565b613e8a60208301866139f3565b613e976040830185613e5b565b613ea46060830184613e5b565b95945050505050565b613eb681613b0a565b82525050565b608082015f820151613ed05f850182613bef565b506020820151613ee36020850182613bef565b506040820151613ef66040850182613ead565b506060820151613f096060850182613ead565b50505050565b5f608082019050613f225f830184613ebc565b92915050565b613f3181613a2c565b82525050565b5f602082019050613f4a5f830184613f28565b92915050565b608082015f820151613f645f850182613bef565b506020820151613f776020850182613bef565b506040820151613f8a6040850182613ead565b506060820151613f9d6060850182613ead565b50505050565b5f608082019050613fb65f830184613f50565b92915050565b5f606082019050613fcf5f8301866139f3565b613fdc60208301856139f3565b613fe960408301846139f3565b949350505050565b5f806040838503121561400757614006613a24565b5b5f61401485828601613a53565b925050602061402585828601613aa8565b9150509250929050565b5f614039826139a0565b9050919050565b6140498161402f565b82525050565b5f6020820190506140625f830184614040565b92915050565b5f806040838503121561407e5761407d613a24565b5b5f61408b85828601613aa8565b925050602061409c85828601613aa8565b9150509250929050565b5f6140b0826139a0565b9050919050565b6140c0816140a6565b82525050565b5f6020820190506140d95f8301846140b7565b92915050565b5f80fd5b5f601f19601f8301169050919050565b7f4e487b71000000000000000000000000000000000000000000000000000000005f52604160045260245ffd5b614129826140e3565b810181811067ffffffffffffffff82111715614148576141476140f3565b5b80604052505050565b5f61415a613a1b565b90506141668282614120565b919050565b60058110614177575f80fd5b50565b5f815190506141888161416b565b92915050565b5f8151905061419c81613a92565b92915050565b5f815190506141b081613a3d565b92915050565b5f61010082840312156141cc576141cb6140df565b5b6141d7610100614151565b90505f6141e68482850161417a565b5f8301525060206141f98482850161418e565b602083015250604061420d8482850161418e565b60408301525060606142218482850161418e565b60608301525060806142358482850161418e565b60808301525060a06142498482850161418e565b60a08301525060c061425d8482850161418e565b60c08301525060e0614271848285016141a2565b60e08301525092915050565b5f610100828403121561429357614292613a24565b5b5f6142a0848285016141b6565b91505092915050565b5f82825260208201905092915050565b7f4661726d47616d653a204c616e64206e6f742067726f77696e670000000000005f82015250565b5f6142ed601a836142a9565b91506142f8826142b9565b602082019050919050565b5f6020820190508181035f83015261431a816142e1565b9050919050565b5f8151905061432f81613ca7565b92915050565b60038110614341575f80fd5b50565b5f8151905061435281614335565b92915050565b60038110614364575f80fd5b50565b5f8151905061437581614358565b92915050565b5f60ff82169050919050565b6143908161437b565b811461439a575f80fd5b50565b5f815190506143ab81614387565b92915050565b5f60e082840312156143c6576143c56140df565b5b6143d060e0614151565b90505f6143df84828501614321565b5f8301525060206143f284828501614344565b602083015250604061440684828501614367565b604083015250606061441a8482850161418e565b606083015250608061442e8482850161418e565b60808301525060a06144428482850161418e565b60a08301525060c06144568482850161439d565b60c08301525092915050565b5f60e0828403121561447757614476613a24565b5b5f614484848285016143b1565b91505092915050565b5f6040820190506144a05f8301856139f3565b6144ad60208301846139f3565b9392505050565b5f815190506144c281613b15565b92915050565b5f602082840312156144dd576144dc613a24565b5b5f6144ea848285016144b4565b91505092915050565b7f4661726d47616d653a204e6f206e617469766520746f6b656e7320746f2077695f8201527f7468647261770000000000000000000000000000000000000000000000000000602082015250565b5f61454d6026836142a9565b9150614558826144f3565b604082019050919050565b5f6020820190508181035f83015261457a81614541565b9050919050565b7f4661726d47616d653a204e6f7420746865206661726d657200000000000000005f82015250565b5f6145b56018836142a9565b91506145c082614581565b602082019050919050565b5f6020820190508181035f8301526145e2816145a9565b9050919050565b7f4661726d47616d653a2043726f70206e6f742067726f77696e670000000000005f82015250565b5f61461d601a836142a9565b9150614628826145e9565b602082019050919050565b5f6020820190508181035f83015261464a81614611565b9050919050565b7f4661726d47616d653a204d617820626f6f7374657273207265616368656400005f82015250565b5f614685601e836142a9565b915061469082614651565b602082019050919050565b5f6020820190508181035f8301526146b281614679565b9050919050565b7f4661726d47616d653a20426f6f73746572206e6f7420617661696c61626c65205f8201527f666f72204b494e44000000000000000000000000000000000000000000000000602082015250565b5f6147136028836142a9565b915061471e826146b9565b604082019050919050565b5f6020820190508181035f83015261474081614707565b9050919050565b5f6020828403121561475c5761475b613a24565b5b5f6147698482850161418e565b91505092915050565b7f4661726d47616d653a20496e73756666696369656e74204b494e4400000000005f82015250565b5f6147a6601b836142a9565b91506147b182614772565b602082019050919050565b5f6020820190508181035f8301526147d38161479a565b9050919050565b5f6040820190506147ed5f830185613f28565b6147fa60208301846139f3565b9392505050565b7f4661726d47616d653a20426f6f73746572206e6f7420617661696c61626c65205f8201527f666f72206e617469766520746f6b656e00000000000000000000000000000000602082015250565b5f61485b6030836142a9565b915061486682614801565b604082019050919050565b5f6020820190508181035f8301526148888161484f565b9050919050565b7f4661726d47616d653a20496e73756666696369656e74207061796d656e7400005f82015250565b5f6148c3601e836142a9565b91506148ce8261488f565b602082019050919050565b5f6020820190508181035f8301526148f0816148b7565b9050919050565b7f4e487b71000000000000000000000000000000000000000000000000000000005f52601160045260245ffd5b5f61492e826139ea565b9150614939836139ea565b9250828203905081811115614951576149506148f7565b5b92915050565b6002811061496857614967613d1e565b5b50565b5f81905061497882614957565b919050565b5f6149878261496b565b9050919050565b6149978161497d565b82525050565b5f6020820190506149b05f83018461498e565b92915050565b7f4661726d47616d653a2043726f70206e6f7420726561647900000000000000005f82015250565b5f6149ea6018836142a9565b91506149f5826149b6565b602082019050919050565b5f6020820190508181035f830152614a17816149de565b9050919050565b5f614a28826139ea565b91507fffffffffffffffffffffffffffffffffffffffffffffffffffffffffffffffff8203614a5a57614a596148f7565b5b600182019050919050565b7f4e487b71000000000000000000000000000000000000000000000000000000005f52601260045260245ffd5b5f614a9c826139ea565b9150614aa7836139ea565b925082614ab757614ab6614a65565b5b828204905092915050565b614acb81613d71565b82525050565b5f602082019050614ae45f830184614ac2565b92915050565b5f60808284031215614aff57614afe6140df565b5b614b096080614151565b90505f614b188482850161418e565b5f830152506020614b2b8482850161418e565b6020830152506040614b3f848285016144b4565b6040830152506060614b53848285016144b4565b60608301525092915050565b5f60808284031215614b7457614b73613a24565b5b5f614b8184828501614aea565b91505092915050565b7f4661726d47616d653a2053656564206e6f7420617661696c61626c6520666f725f8201527f204b494e4420746f6b656e000000000000000000000000000000000000000000602082015250565b5f614be4602b836142a9565b9150614bef82614b8a565b604082019050919050565b5f6020820190508181035f830152614c1181614bd8565b9050919050565b7f4661726d47616d653a20496e73756666696369656e74204b494e442062616c615f8201527f6e63650000000000000000000000000000000000000000000000000000000000602082015250565b5f614c726023836142a9565b9150614c7d82614c18565b604082019050919050565b5f6020820190508181035f830152614c9f81614c66565b9050919050565b60038110614cb757614cb6613d1e565b5b50565b5f819050614cc782614ca6565b919050565b5f614cd682614cba565b9050919050565b614ce681614ccc565b82525050565b5f606082019050614cff5f830186613f28565b614d0c6020830185614ac2565b614d196040830184614cdd565b949350505050565b5f608082019050614d345f830187614ac2565b614d4160208301866139f3565b614d4e6040830185613e5b565b614d5b60608301846139f3565b95945050505050565b5f80fd5b5f67ffffffffffffffff821115614d8257614d816140f3565b5b602082029050602081019050919050565b5f80fd5b5f614da9614da484614d68565b614151565b90508083825260208201905060208402830185811115614dcc57614dcb614d93565b5b835b81811015614df55780614de18882614321565b845260208401935050602081019050614dce565b5050509392505050565b5f82601f830112614e1357614e12614d64565b5b8151614e23848260208601614d97565b91505092915050565b5f60208284031215614e4157614e40613a24565b5b5f82015167ffffffffffffffff811115614e5e57614e5d613a28565b5b614e6a84828501614dff565b91505092915050565b7f4661726d47616d653a2043616e6e6f742068656c7020796f757273656c6600005f82015250565b5f614ea7601e836142a9565b9150614eb282614e73565b602082019050919050565b5f6020820190508181035f830152614ed481614e9b565b9050919050565b7f4661726d47616d653a204e6f206661726d6572206f6e2074686973206c616e645f82015250565b5f614f0f6020836142a9565b9150614f1a82614edb565b602082019050919050565b5f6020820190508181035f830152614f3c81614f03565b9050919050565b7f4661726d47616d653a204461696c792068656c70206c696d69742072656163685f8201527f6564000000000000000000000000000000000000000000000000000000000000602082015250565b5f614f9d6022836142a9565b9150614fa882614f43565b604082019050919050565b5f6020820190508181035f830152614fca81614f91565b9050919050565b5f604082019050614fe45f830185613f28565b614ff16020830184613f28565b9392505050565b7f4661726d47616d653a2043616e6e6f7420737465616c2066726f6d20796f75725f8201527f73656c6600000000000000000000000000000000000000000000000000000000602082015250565b5f6150526024836142a9565b915061505d82614ff8565b604082019050919050565b5f6020820190508181035f83015261507f81615046565b9050919050565b5f6060820190506150995f830186613f28565b6150a66020830185613f28565b6150b360408301846139f3565b949350505050565b5f602082840312156150d0576150cf613a24565b5b5f6150dd848285016141a2565b91505092915050565b7f4661726d47616d653a204e6f742073656564206f776e657200000000000000005f82015250565b5f61511a6018836142a9565b9150615125826150e6565b602082019050919050565b5f6020820190508181035f8301526151478161510e565b9050919050565b7f4661726d47616d653a2053656564206e6f7420696e20536565642073746167655f82015250565b5f6151826020836142a9565b915061518d8261514e565b602082019050919050565b5f6020820190508181035f8301526151af81615176565b9050919050565b7f4661726d47616d653a204c616e64206e6f7420617661696c61626c65000000005f82015250565b5f6151ea601c836142a9565b91506151f5826151b6565b602082019050919050565b5f6020820190508181035f830152615217816151de565b9050919050565b7f4661726d47616d653a204c616e6420696e20636f6f6c646f776e0000000000005f82015250565b5f615252601a836142a9565b915061525d8261521e565b602082019050919050565b5f6020820190508181035f83015261527f81615246565b9050919050565b5f6060820190506152995f8301866139f3565b6152a660208301856139f3565b6152b36040830184613f28565b949350505050565b7f4661726d47616d653a2053656564206e6f7420617661696c61626c6520666f725f8201527f206e617469766520746f6b656e00000000000000000000000000000000000000602082015250565b5f615315602d836142a9565b9150615320826152bb565b604082019050919050565b5f6020820190508181035f83015261534281615309565b9050919050565b5f615353826139ea565b915061535e836139ea565b925082820261536c816139ea565b91508282048414831517615383576153826148f7565b5b5092915050565b5f819050919050565b5f819050919050565b6153ad6153a88261538a565b615393565b82525050565b5f819050919050565b6153cd6153c8826139ea565b6153b3565b82525050565b5f8160601b9050919050565b5f6153e9826153d3565b9050919050565b5f6153fa826153df565b9050919050565b61541261540d82613a2c565b6153f0565b82525050565b5f615423828861539c565b60208201915061543382876153bc565b6020820191506154438286615401565b60148201915061545382856153bc565b60208201915061546382846153bc565b602082019150819050969550505050505056fea264697066735822122039c10eb2e7671f5aa06bc52945bda7adbbad2fe5b03a77a3aad8c968d2eb078164736f6c63430008180033","linkReferences":{}},"methodIdentifiers":{"DAILY_HELP_LIMIT()":"b58c5f22","FERTILIZING_PERCENTAGE_REDUCTION()":"0beb4513","MAX_BOOSTERS_PER_CROP()":"fc637ae2","WATERING_TIME_REDUCTION()":"354daed6","applyBooster(uint256,uint8,bool)":"56863eed","boosterPrices(uint8)":"6d8e25fc","buySeedWithKind(uint8)":"631beab3","buySeedWithNative(uint8)":"f9863442","checkAndAdvanceGrowth(uint256)":"24b0836e","claimLand(uint256,uint256)":"ef6f1a2f","dailyHelps(address,uint256)":"d5b4d6f4","emergencyPause()":"51858e27","getAvailableSeedsForKind()":"f3d1f97d","getAvailableSeedsForNative()":"65467c79","getBoosterPrice(uint8)":"7b652f73","getPlayerStats(address)":"4fd66eae","getRemainingDailyHelps(address)":"61179b4c","getSeedPrice(uint8)":"cc098bf6","harvestCrop(uint256)":"5d0cc38f","helpOther(uint256,uint8,bool)":"95ad8187","kindToken()":"ea1c80ab","landNFT()":"39d022e1","lastHelpDay(address)":"1309d055","owner()":"8da5cb5b","playerStats(address)":"cdafbbb6","renounceOwnership()":"715018a6","seedNFT()":"f0cab623","shop()":"0881fa0d","stealCrop(uint256)":"ae1ec92e","transferOwnership(address)":"f2fde38b","updateBoosterPrice(uint8,uint256,uint256,bool,bool)":"37952bda","weatherRequestToLand(uint256)":"2b2ce55a","withdrawNative()":"50431ce4"},"id":38}